00                                                   1181677734000101BORKENHAGEN SOLUCOES CONTABEISEDVINO BORKENHAGEN  AV DOUTOR DAMIAO 62                               JARDIM AMERICA      85864400FOZ DO IGUACU       PR004530286464fiscal@borkenhagen.net                                      2021011151         1               100910509001305                  *
10102453929000100000000000000000000000000000000000000ORTOPLAN ESPECIALIDADES ODONTOLOGICAS LTRua TAROBA 905                                    CENTRO              85851220FOZ DO IGUACU       PR004535219090N8630504P100151501152100     000000000000000000000000000000000000000000000000000000000000                000000000000000000000000000000000000000000000    *
30102453929000100               113098790490109200511FAISAL MAHMOUD ISMAIL                                                 00000000013                            01210000000000643357000000000000000    000000000000000000000000000000000000000000000000000000000000                                                                                                  *
30102453929000100               113888997301212200011ALESSANDRO SCHWERTNER                                                 00000000012                            01210000000000643357000000000000000    000000000000000000000000000000000000000000000000000000000000                                                                                                  *
30102453929000100               123153227842106201901JOSENICE RODRIGUES MONTEIRO                                           00000000039002277200033210620191204197304201000000000295938000000000000000  05000000000027251000000000000000000000000000000000000000000000                                                                                                  *
30102453929000100               124233618760108201001DIRCEU ARNI REZENDE                                                   00000000027391584500020010820100210196201423000000000255038000000000000000    000000000000000000000000000000000000000000000000000000000000                                                                                                  *
30102453929000100               124361427600907202001EVA BARBOZA                                                           00000000043006943700037090720201606197405143000000000095523000000000000000    000000000000000000000000000000000000000000000000000000000000                                                                                                  *
30102453929000100               125078374990210201401SILMARA APARECIDA DA SILVA                                            00000000007220317600030021020141801197503224000000000243433000000000000000    000000000000000000000000000000000000000000000000000000000000                                                                                                  *
30102453929000100               126042944961810201801CAROLINA MEDEIROS RAMOS                                               00000000019001667400053181020180607197903224000000000190302000000000000000    000000000000000000000000000000000000000000000000000000000000                                                                                                  *
30102453929000100               126735865060109201201IRENE PEREIRA SERAFIM DA SILVA                                        00000000002120113700010010920122602196803224000000000041276000000000034397    000000000000000000000000000000000000000000000000000000000000                                                                                                  *
32102453929000100               126735865060109201201IRENE PEREIRA SERAFIM DA SILVA                                        I106012021S                                                                                                                                                                                                                                 *
30102453929000100               129484865070107201601FRANCIELLE FERNANDA XAVIER                                            00000000030484600400010010720160503198704221000000000183738000000000000000    000000000000000000000000000000000000000000000000000000000000                                                                                                  *
30102453929000100               129657455071612201601DJULLY SUELLEN DA FONSECA LEMES                                       00000000009126801400010161220160305198903224000000000248163000000000000000    000000000000000000000000000000000000000000000000000000000000                                                                                                  *
30102453929000100               130308335091303201301ELIZANDRA RODRIGUES PINTO                                             00000000003837275700010130320130212198803224000000000209520000000000000000    000000000000000000000000000000000000000000000000000000000000                                                                                                  *
30102453929000100               130368924930405200901ANGELICA ISABEL CARDOSO                                               00000000001839279800010040520092710198803224000000000279260000000000000000    000000000000000000000000000000000000000000000000000000000000                                                                                                  *
30102453929000100               201939035412108201901LARISSA VASCONCELOS FONSECA DE FREITAS                                00000000041374711900002210820192903198903224000000000158600000000000000000    000000000000000000000000000000000000000000000000000000000000                                                                                                  *
90999999999999999999999999999999999999999999999999999                                                                                                                                                                                                                                                                                                                  *
