00                                                   1104677774000102SIRINO E LOCATELLI SERV CONT  LUIZ ALBERTO SIRINO RUA SETE DE SETEMBRO 77                           CENTRO              89690000VARGEAO             SC 04934340318estecvgo@desbrava.com.br                                    2021081151         1               185201226000103                  *
10183856559000145000000000000000000000000000000000000ERVATEIRA NOSSA SENHORA DE LOURDES LTDA AV 21 DE ABRIL 807                                CENTRO              89690000VARGEAO             SC 04934340133N1099605N300153100032100     000000000015381000000000104167000000000000000000000000000000                000000000000000000000000000000000000000000000    *
12183856559000145000000000000000000000000000000000000000000000000000000000000000000 000000018012000000000000000000                                000000000000000            000000000000000000000000000000000000000000000000000000000000000000000000000000000000000000000000000000000000000000000000000000000000000000000000000000000000000000000000000000000000      *
30183856559000145               108379066840110198901LAUDIR MARQUES                                                                146000292700458011019890808195407825000000000194342000000000000000    000000000000000000000000000000000000000000000000000000000000                                                                                                  *
30183856559000145               117080472331507199311AMANDIO SALVI                                                                   1                            02521000000000110000000000000000000    000000000000000000000000000000000000000000000000000000000000                                                                                                  *
30183856559000145               120911501791405202101LENOIR COSTA                                                                 5063268110100020140520210311196706226000000000128100000000000000000    000000000000000000000000000000000000000000000000000000000000                                                                                                  *
30183856559000145               120911502091102202101ANILDO SANTANA                                                               4984109791900060110220210503196406226000000000128100000000000000000    000000000000000000000000000000000000000000000000000000000000                                                                                                  *
30183856559000145               120911676162001201701ARI SANTANA                                                                  4005008770200004200120170501196706226000000000128100000000000000000    000000000000000000000000000000000000000000000000000000000000                                                                                                  *
30183856559000145               121269103870106201111ALCENIR SALVI                                                                   3                            02521000000000250000000000000000000    000000000000000000000000000000000000000000000000000000000000                                                                                                  *
30183856559000145               121602275540102201701DARCI FIDELIS                                                                4016114037200030010220171811196906226000000000128100000000000000000    000000000000000000000000000000000000000000000000000000000000                                                                                                  *
30183856559000145               121747498410106200601GILSO ROBERTO DEQUIGIOVANI                                                    844003105300017010620062608195707842000000000083755000000000000000    000000000000000000000000000000000000000000000000000000000000                                                                                                  *
30183856559000145               122292542292806202101ALTAIR MARQUES DOS SANTOS                                                    5153045851200060280620210106197106226000000000128100000000000000000    000000000000000000000000000000000000000000000000000000000000                                                                                                  *
30183856559000145               122992743771405202101LEONIR COSTA                                                                 5052009368900010140520211303197006226000000000128100000000000000000    000000000000000000000000000000000000000000000000000000000000                                                                                                  *
30183856559000145               123202856890102199601HELIO SERPA RAMOS                                                             124007041600007010219962305196207842000000000189901000000000000000    000000000000000000000000000000000000000000000000000000000000                                                                                                  *
30183856559000145               123366910881810201201IVENIO AFONSO BIRCK                                                          2778001359000013181020121708197107842000000000222190000000000000000    000000000000000000000000000000000000000000000000000000000000                                                                                                  *
30183856559000145               123759281311002202101GILMAR SANT ANNA                                                             4927355679700030100220212004197406226000000000128100000000000000000    000000000000000000000000000000000000000000000000000000000000                                                                                                  *
30183856559000145               123950049461002202101LEONALDO SANTANA                                                             4973002188700006100220213007196606226000000000128100000000000000000    000000000000000000000000000000000000000000000000000000000000                                                                                                  *
30183856559000145               124039748050103201701VERA LUCIA DA SILVA BRUSTOLIN                                                4051003869800033010320170708197305211000000000140400000000000000000    000000000000000000000000000000000000000000000000000000000000                                                                                                  *
30183856559000145               124838657731609200201NOELI LUIZA SALVI BIRCK                                                       618001189100018160920022106196604110000000000211007000000000000000    000000000000000000000000000000000000000000000000000000000000                                                                                                  *
30183856559000145               124839300440102201701SIDINEI JOSE RIBEIRO                                                         4027451658200040010220171605197606226000000000128100000000000000000    000000000000000000000000000000000000000000000000000000000000                                                                                                  *
30183856559000145               125434806510106200401SILVANA ADRIANE ALMEIDA SANTIN                                                719009769200021010620041907197805211000000000140400000000000000000    000000000000000000000000000000000000000000000000000000000000                                                                                                  *
30183856559000145               130659987251002202101IVANIR CORREIA                                                               4916738606600050100220211302198007825000000000176327000000000000000    000000000000000000000000000000000000000000000000000000000000                                                                                                  *
30183856559000145               132270267230705201801LUCIANO VIGO                                                                 4275001760300028070520181002198105211000000000144890000000000000000    000000000000000000000000000000000000000000000000000000000000                                                                                                  *
30183856559000145               132584027271102202101GILBERTO RIBEIRO CORDEIRO                                                    4995183870500010110220210906198506226000000000128100000000000000000    000000000000000000000000000000000000000000000000000000000000                                                                                                  *
30183856559000145               132610127210205200101VILMO RUTI SCHMIDT                                                            506005137600016020520010703195406220000000000165890000000000000000    000000000000000000000000000000000000000000000000000000000000                                                                                                  *
30183856559000145               134242647242210202001LUIZ BATISTA GUEDES RAMOS                                                    4848295326100010221020201008198506226000000000128100000000000000000    000000000000000000000000000000000000000000000000000000000000                                                                                                  *
30183856559000145               136348387272506202001GILMAR GUEDES RAMOS                                                          4804029305700020250620200406198706226000000000136710000000000000000    000000000000000000000000000000000000000000000000000000000000                                                                                                  *
30183856559000145               137302297280208202101SIDINEI SIQUEIRA DE LIMA                                                     5197490991400010020820212705198706226000000000123966000000000000000    000000000000000000000000000000000000000000000000000000000000                                                                                                  *
30183856559000145               137664757290201200601LUIZ CARLOS ORTIZ                                                             811008533000025020120062403197607825000000000176327000000000000000    000000000000000000000000000000000000000000000000000000000000                                                                                                  *
30183856559000145               138004124960403202001JHONATAN SALVI BIRCK                                                         4771061358000050040320200710199807842000000000131133000000000000000    000000000000000000000000000000000000000000000000000000000000                                                                                                  *
30183856559000145               138800527262005202101ANDRIELI QUEIROZ BIESEK                                                      5118013212600060200520212510198905211000000000140400000000000000000    000000000000000000000000000000000000000000000000000000000000                                                                                                  *
30183856559000145               139676267241604202101ROSANE APARECIDA REOLAO ZANCANARO                                            5017004926100027160420212301197907842000000000145271000000000000000    000000000000000000000000000000000000000000000000000000000000                                                                                                  *
30183856559000145               142496897232806202101EDIVAN RIBEIRO SANTANA                                                       5164972523800030280620211312199506226000000000137948000000000000000    000000000000000000000000000000000000000000000000000000000000                                                                                                  *
30183856559000145               160025364431005202101ADEMIR REES                                                                  5041178515000060100520211910198806226000000000128100000000000000000    000000000000000000000000000000000000000000000000000000000000                                                                                                  *
30183856559000145               160968629431002202101DERLI SANTANA                                                                4962486695700050100220210811197906226000000000024794000000000064461    000000000000000000000000000000000000000064461000000000000000                                                                                                  *
32183856559000145               160968629431002202101DERLI SANTANA                                                         J 06082021                                                                                                                                                                                                                                  *
30183856559000145               161212430591007202001DANIELLI DOS SANTOS                                                          4826891813700010100720202804198505211000000000140400000000000000000    000000000000000000000000000000000000000000000000000000000000                                                                                                  *
30183856559000145               161777525790809201401JOACIR ALVES                                                                 3566906658000010080920140603199007842000000000150352000000000000000    000000000000000000000000000000000000000000000000000000000000                                                                                                  *
30183856559000145               162047124981405202101JULIANO COSTA                                                                5074812466500030140520210806199106226000000000128100000000000000000    000000000000000000000000000000000000000000000000000000000000                                                                                                  *
30183856559000145               162069018751211202001CARLOS ALBERTO DOS SANTOS XAVIER                                             4859243234300060121120200805198908621000000000187080000000000000000    000000000000000000000000000000000000000000000000000000000000                                                                                                  *
30183856559000145               162651131282007202101GABRIEL MORAES                                                               5186812689600030200720210206199706226000000000004457000000000000000    000000000000000000000000000000000000000000001000000000000000                                                                                                  *
32183856559000145               162651131282007202101GABRIEL MORAES                                                        J 30082021                                                                                                                                                                                                                                  *
30183856559000145               163525680771405202101LUIZ CARLOS COSTA PEREIRA                                                    5107378924600060140520211409199306226000000000128100000000000000000    000000000000000000000000000000000000000000000000000000000000                                                                                                  *
30183856559000145               163527152581601201801MARLI GUEDES                                                                 4229001765600028160120180106196705143000000000052333000000000000000    000000000000000000000000000000000000000000000000000000000000                                                                                                  *
30183856559000145               163527647120705202101MICHEL SANTANA                                                               5039109831400060070520210107199207842000000000140400000000000000000    000000000000000000000000000000000000000000000000000000000000                                                                                                  *
30183856559000145               164444590370108200801LIRIAN NATANAELE BORGES DA SILVEIRA                                          1463195032100020010820082208199005211000000000140397000000000000000  05000000000010985000000000036230000000000000000000000000000000                                                                                                  *
32183856559000145               164444590370108200801LIRIAN NATANAELE BORGES DA SILVEIRA                                   Q108082021                                                                                                                                                                                                                                  *
30183856559000145               164445147200201201801MIRIAM DANIELE BORGES DA SILVEIRA DE AVILA                                   4207742667500010020120180901198805211000000000140400000000000000000    000000000000000000000000000000000000000000000000000000000000                                                                                                  *
30183856559000145               166301799520302202101ROBERTO ELIAS MONTEIRO DOS SANTOS                                            4905449333100020030220212711199106226000000000128100000000000000000    000000000000000000000000000000000000000000000000000000000000                                                                                                  *
30183856559000145               166958967132806202101TIAGO GOLDONI                                                                5175159628508930280620210803200507842000000000159414000000000000000    000000000000000000000000000000000000000000000000000000000000                                                                                                  *
30183856559000145               209136595892502201901MARCIO ALVES                                                                 4387109831100060250220191402198107842000000000135508000000000000000    000000000000000000000000000000000000000000000000000000000000                                                                                                  *
30183856559000145               209138158582004202101NOELI VIEIRA GONCALVES                                                       5028002809200022200420212612197307842000000000142491000000000000000    000000000000000000000000000000000000000000000000000000000000                                                                                                  *
30183856559000145               268981039100406202101JESSICA MINUTO GARCIA                                                        5131029860004040040620211604199505211000000000140400000000000000000    000000000000000000000000000000000000000000000000000000000000                                                                                                  *
90999999999999999999999999999999999999999999999999999                                                                                                                                                                                                                                                                                                                  *
