00                                                   1180878119000109BIEZUS CONTADORES ASSOCIADOS SPAULO CESAR FALCIONIRUA MONTEIRO LOBATO 954                           CENTRO              85950000PALOTINA            PR004436495243cesar@realcontabilidade.net.br                              2018081151         1               100910509001305                  *
10102037327000163000000000000000000000000000000000000COMERCIO DE COMBUSTIVEIS CAUNETO LTDA   Avenida PRESIDENTE KENNEDY 1783                   CENTRO              85950000PALOTINA            PR004436495355N4731800P300151501152100     000000000000000000000000000000000000000000000000000000000000                000000000000000000000000000000000000000000000    *
30102037327000163               108035506660102201401LEODIR FERREIRA TELLES                                                00000000056007512700016010220140912196007825000000000192600000000000000000    000000000000000000000000000000000000000000000000000000000000                                                                                                  *
30102037327000163               114601019490608199711HAROLDO CAUNETO                                                       00000000001                            01414000000000390000000000000000000    000000000000000000000000000000000000000000000000000000000000                                                                                                  *
30102037327000163               123033371960207200701ALTAIR PEREIRA VARGAS                                                 00000000005009961700025020720071603197105211000000000270899000000000000000    000000000000000000000000000000000000000000000000000000000000                                                                                                  *
30102037327000163               123087862070103201801EVERALDO GONCALVES RIBEIRO                                            00000000104002867100034010320181505197205211000000000266473000000000000000    000000000000000000000000000000000000000000000000000000000000                                                                                                  *
30102037327000163               124282506490202201501SERGIO DUARTE PEREIRA                                                 00000000078006344100029020220152601197405211000000000181583000000000000000    000000000000000000000000000000000000000000000000000000000000                                                                                                  *
30102037327000163               124313250260104201101JOSE RENATO FERNANDES FERREIRA                                        00000000014758374000001010420110501197607825000000000277638000000000000000    000000000000000000000000000000000000000000000000000000000000                                                                                                  *
30102037327000163               124635790230106201501VANDO DE SANTANA                                                      00000000080003805400244010620152701197207825000000000235879000000000000000    000000000000000000000000000000000000000000000000000000000000                                                                                                  *
30102037327000163               124994591250108201301JOSE ROMILDO GONCALVES LOPES                                          00000000046008684900003010820130708197107825000000000376211000000000000000    000000000000000000000000000000000000000000000000000000000000                                                                                                  *
30102037327000163               126255935220111201701ADILSO DOS SANTOS                                                     00000000099946915800010011120171510197907825000000000246146000000000000000    000000000000000000000000000000000000000000000000000000000000                                                                                                  *
30102037327000163               126508304000108201801CASSIANO GONCALVES PEREIRA                                            00000000112002589100009010820180708198107825000000000192600000000000000000    000000000000000000000000000000000000000000000000000000000000                                                                                                  *
30102037327000163               126525875030201201201EVERALDO RIBEIRO DA SILVA                                             00000000026009998900046020120120802197507825000000000238704000000000000000    000000000000000000000000000000000000000000000000000000000000                                                                                                  *
30102037327000163               126895554000407201801JULIO CEZAR DOS SANTOS                                                00000000109008254700012040720180807198007825000000000192600000000000000000    000000000000000000000000000000000000000000000000000000000000                                                                                                  *
30102037327000163               127249074010106201801REGINALDO CARMO DA SILVA                                              00000000108005509200013010620182010198207825000000000192600000000000000000    000000000000000000000000000000000000000000000000000000000000                                                                                                  *
30102037327000163               128338875090108201801UELINTON TORRES RANGEL                                                00000000111619166100030010820181504198107825000000000147660000000000016050    000000000000000000000000000000000000000016050000000000000000                                                                                                  *
32102037327000163               128338875090108201801UELINTON TORRES RANGEL                                                I323082018S                                                                                                                                                                                                                                 *
30102037327000163               128853125070305200401IVANIR HILGERT LUBIAN                                                 00000000004332081400001030520041303196705141000000000005719000000000050035    000000000000000000000000000000000000000050035000000000000000                                                                                                  *
32102037327000163               128853125070305200401IVANIR HILGERT LUBIAN                                                 I102082018S                                                                                                                                                                                                                                 *
30102037327000163               129284435350207201801JEFERSON ALENCAR DUARTE                                               00000000110435980700010020720182612198407825000000000282913000000000000000    000000000000000000000000000000000000000000000000000000000000                                                                                                  *
30102037327000163               130631289360103201801MARCOS DA SILVA CARVALHO                                              00000000103009734900225010320182905198107825000000000230165000000000000000    000000000000000000000000000000000000000000000000000000000000                                                                                                  *
30102037327000163               160080648530102201801EMERSON RODRIGO BERTICELI                                             00000000101389350300020010220181504199005211000000000149583000000000000000    000000000000000000000000000000000000000000000000000000000000                                                                                                  *
30102037327000163               201119874790107201401CAMILA REIGUEL CARDOSO                                                00000000067928869500030010720140703199005211000000000152745000000000000000    000000000000000000000000000000000000000000000000000000000000                                                                                                  *
30102037327000163               203261675060204201801DIEGO APARECIDO DE CASTRO                                             00000000106474910400050020420181004198905211000000000086520000000000042137    000000000000000000000000000000000000000042137000000000000000                                                                                                  *
32102037327000163               203261675060204201801DIEGO APARECIDO DE CASTRO                                             I111082018S                                                                                                                                                                                                                                 *
30102037327000163               203794788240110201301LEODIR FERREIRA TELLES JUNIOR                                         00000000050480056100001011020132610198805211000000000327595000000000000000    000000000000000000000000000000000000000000000000000000000000                                                                                                  *
30102037327000163               212774825450103201701RODRIGO DE OLIVEIRA FERREIRA                                          00000000091210111400040010320172004199705211000000000206001000000000000000    000000000000000000000000000000000000000000000000000000000000                                                                                                  *
10102037327000244000000000000000000000000000000000000COMERCIO DE COMBUSTIVEIS CAUNETO LTDA FLAvenida PRESIDENTE KENNEDY 2600                   CENTRO              85950000PALOTINA            PR004436495015N4731800P300151501152100     000000000015855000000000000000000000000000000000000000000000                000000000000000000000000000000000000000000000    *
30102037327000244               128540275090109201601MARIA IEDA DA CRUZ                                                    00000000005477140500050010920160503196605211000000000149583000000000000000    000000000000000000000000000000000000000000000000000000000000                                                                                                  *
30102037327000244               129003925290110201601ADRIANO DOS SANTOS                                                    00000000006391601600020011020161805198405211000000000149583000000000000000    000000000000000000000000000000000000000000000000000000000000                                                                                                  *
30102037327000244               203553800180112201601CLEUCIR LUBIAN                                                        00000000008571769200030011220161810199605211000000000084273000000000000000    000000000000000000000000000000000000000000000000000000000000                                                                                                  *
30102037327000244               206656863950108201601RAQUEL GRACIELE MOREIRA                                               00000000003681879600010010820163006198704110000000000126409000000000000000    000000000000000000000000000000000000000000000000000000000000                                                                                                  *
30102037327000244               206821090740108201601MONICA SALETE BOEIRA                                                  00000000001179396300020010820160906198604110000000000126409000000000000000    000000000000000000000000000000000000000000000000000000000000                                                                                                  *
30102037327000244               206821318781611201601CRISTIANO BONIN                                                       00000000007893036700010161120161504198805211000000000149583000000000000000    000000000000000000000000000000000000000000000000000000000000                                                                                                  *
30102037327000244               236263583360108201801RONI BENTO DE ABREU                                                   00000000010945125700040010820182012199005211000000000117863000000000000000    000000000000000000000000000000000000000000000000000000000000                                                                                                  *
10119753934000122000000000000000000000000000000000000AUTO POSTO CAUNETO LTDA                 PRESIDENTE KENNEDY 1740                           CENTRO              85950000PALOTINA            PR004436496363N4731800P300161231392100     000000000003171000000000000000000000000000000000000000000000                000000000000000000000000000000000000000000000    *
30119753934000122               120602826500202201501ANTONIO APARECIDO MARTINS                                             00000000004006053600002020220151211196005211000000000126409000000000000000    000000000000000000000000000000000000000000000000000000000000                                                                                                  *
30119753934000122               121297775050106201801SERGIO MARIANO DA SILVA                                               00000000026001176400033010620181505196504110000000000126409000000000000000    000000000000000000000000000000000000000000000000000000000000                                                                                                  *
30119753934000122               121464670390108201601EDSON RONNAU                                                          00000000017156454300050010820160402196905211000000000169416000000000000000  05000000000015247000000000000000000000000000000000000000000000                                                                                                  *
30119753934000122               128436585370103201601RENATO SALLES                                                         00000000013346901700030010320160305198307825000000000349528000000000000000    000000000000000000000000000000000000000000000000000000000000                                                                                                  *
30119753934000122               129000445390202201501LEANDRO GONCALVES DOS SANTOS                                          00000000001388098300010020220150604198205211000000000154501000000000000000    000000000000000000000000000000000000000000000000000000000000                                                                                                  *
30119753934000122               129517025170108201701LUCINETE NUNES PAIS                                                   00000000019430076700010010820172412197105211000000000061450000000000000000    000000000000000000000000000000000000000000000000000000000000                                                                                                  *
32119753934000122               129517025170108201701LUCINETE NUNES PAIS                                                   P117062018                                                                                                                                                                                                                                  *
32119753934000122               129517025170108201701LUCINETE NUNES PAIS                                                   Z516082018                                                                                                                                                                                                                                  *
30119753934000122               131286454920202201501DAIANNY FRANCISQUETI DE OLIVEIRA                                      00000000006239070600020020220152908199104211000000000126409000000000000000    000000000000000000000000000000000000000000000000000000000000                                                                                                  *
30119753934000122               165762207830106201801RODRIGO OLIVEIRA DOS SANTOS                                           00000000027734993900040010620182205199805211000000000154501000000000000000    000000000000000000000000000000000000000000000000000000000000                                                                                                  *
30119753934000122               170150446311702201411SILVIA HELENA DUARTE GOMES CAUNETO                                    00000000007                            01414000000000095400000000000000000    000000000000000000000000000000000000000000000000000000000000                                                                                                  *
30119753934000122               200992315000108201701LUAN BARBOSA PEREIRA                                                  00000000020431641900010010820170601198805211000000000168545000000000000000    000000000000000000000000000000000000000000000000000000000000                                                                                                  *
30119753934000122               201942181410102201801RAFAEL ROCHADELLI                                                     00000000023324063000050010220180309198905211000000000117982000000000073738    000000000000000000000000000000000000000073738000000000000000                                                                                                  *
32119753934000122               201942181410102201801RAFAEL ROCHADELLI                                                     I129082018S                                                                                                                                                                                                                                 *
30119753934000122               212581401030103201801EMERSON BACKES MARTINS                                                00000000024700319500050010320182911199905211000000000149652000000000000000    000000000000000000000000000000000000000000000000000000000000                                                                                                  *
30119753934000122               212879838730108201801FELIPE KAUAN DE LARA                                                  00000000028804269700040010820180507199705211000000000142419000000000000000    000000000000000000000000000000000000000000000000000000000000                                                                                                  *
90999999999999999999999999999999999999999999999999999                                                                                                                                                                                                                                                                                                                  *
