00                                                   1103390026000181BUILDING PROFITS ADM E PART LTALESSANDRO DARCI SOARUA DOMINGOS ZANLORENZI 28                        CAMPO COMPRIDO      81270470CURITIBA            PR  4130288000ANA.GORETI@BUILDINGPROFITS.COM.BR                           2021021151         1               180680093000181                  *
10133628655000168000000000000000000000000000000000000GROSSI COMERCIO DE ALIMENTOS LTDA       PRESIDENTE KENNEY 4121                            PORTAO              80610905CURITIBA            PR  4130288000N5611203P300151501152100     000000000041016000000000000000000000000000000000000000000000                000000000000000000000000000000000000000000000    *
14133628655000168000000000000000000000000000000000000125873549290102202101IZACAR JOSEPH VASQUEZ RIVAS                                           059269800001MANOEL RIBAS 841                                  CACHOEIRA           83701710ARAUCARIA           PR                                                                                                       *
14133628655000168000000000000000000000000000000000000143057229640102202101VERUSKA DANIELA AMUNDARAY URPIN                                       057763300001CRISANTENO 1474 CS 03                             CAMPINA DA BARRA    83709670ARAUCARIA           PR                                                                                                       *
14133628655000168000000000000000000000000000000000000160027334190102202101DIULLIVER VIEIRA DE OLIVEIRA                                          187015200030LUIZ TRAMONTIN 1977 AP 33 BL 4                    CAMPO COMPRIDO      81270470CURITIBA            PR                                                                                                       *
30133628655000168               125873549290102202101IZACAR JOSEPH VASQUEZ RIVAS                                           00000000277059269800001010220212603199505134000000000135815000000000000000    000000000000000000000000000000000000000000000000000000000000                                                                                                  *
30133628655000168               128917735292901202001SHEILA PRISCILLA DOS SANTOS OLIVEIRA                                  00000000165378737600001290120202702198604110000000000420192000000000000000    000000000000000000000000000000000000000000000000000000000000                                                                                                  *
30133628655000168               129639064490610202001DAVID EDUARDO VIZCAINO MACADAN                                        00000000223055731500001061020200105199205134000000000136053000000000000000    000000000000000000000000000000000000000000000000000000000000                                                                                                  *
30133628655000168               134093135820212201901EDGARDO JOSE DOMENECHE JIMENEZ                                        00000000146049792500001021220192802199405134000000000132300000000000000000    000000000000000000000000000000000000000000000000000000000000                                                                                                  *
30133628655000168               134160240781901202101IRWIN ALEJANDRO URPIN CARVAJAL                                        00000000272070891900040190120210301200305134000000000134255000000000000000    000000000000000000000000000000000000000000000000000000000000                                                                                                  *
30133628655000168               137310355792308201901BRENDHA CAROLINE CABOSKI                                              00000000030948729900050230820190503200008401000000000153535000000000000000    000000000000000000000000000000000000000000000000000000000000                                                                                                  *
32133628655000168               137310355792308201901BRENDHA CAROLINE CABOSKI                                              P319022021                                                                                                                                                                                                                                  *
32133628655000168               137310355792308201901BRENDHA CAROLINE CABOSKI                                              Z527022021                                                                                                                                                                                                                                  *
30133628655000168               143057229640102202101VERUSKA DANIELA AMUNDARAY URPIN                                       00000000276057763300001010220210908199805134000000000135159000000000000000    000000000000000000000000000000000000000000000000000000000000                                                                                                  *
30133628655000168               145007042280911202001GIOVANI ROXADELI PICCINI                                              00000000247637640600060091120202610200105134000000000026460000000000011036    000000000000000000000000000000000000000011036000000000000000                                                                                                  *
32133628655000168               145007042280911202001GIOVANI ROXADELI PICCINI                                              I306022021S                                                                                                                                                                                                                                 *
30133628655000168               148462140671411201901DIEGO CAVALHEIRO PODEROSO                                             00000000117150204400060141120190105200108401000000000154690000000000000000    000000000000000000000000000000000000000000000000000000000000                                                                                                  *
30133628655000168               160027334190102202101DIULLIVER VIEIRA DE OLIVEIRA                                          00000000275187015200030010220210807199405134000000000135044000000000000000    000000000000000000000000000000000000000000000000000000000000                                                                                                  *
30133628655000168               160054792110212201901ALINE DA SILVA                                                        00000000147726797600030021220191406199405134000000000136337000000000000000    000000000000000000000000000000000000000000000000000000000000                                                                                                  *
32133628655000168               160054792110212201901ALINE DA SILVA                                                        P304022021                                                                                                                                                                                                                                  *
32133628655000168               160054792110212201901ALINE DA SILVA                                                        Z505022021                                                                                                                                                                                                                                  *
30133628655000168               161172624780509201901EVERSON FIRMINO                                                       00000000050020079800040050920192103199605101000000000204942000000000000000    000000000000000000000000000000000000000000000000000000000000                                                                                                  *
30133628655000168               162311964461308202001STEFANE KRISTINA DO NASCIMENTO                                        00000000196224389300959130820202908200105134000000000136374000000000000000    000000000000000000000000000000000000000000000000000000000000                                                                                                  *
30133628655000168               165927513991408201901VANEIDE BARBOSA DA CRUZ                                               00000000018536641700050140820191707199605101000000000041216000000000034022    000000000000000000000000000000000000000034022000000000000000                                                                                                  *
32133628655000168               165927513991408201901VANEIDE BARBOSA DA CRUZ                                               I506022021S                                                                                                                                                                                                                                 *
30133628655000168               166348648970509201901WILLIELTON FERNANDES                                                  00000000042004702400033050920192307199108401000000000150000000000000000000    000000000000000000000000000000000000000000000000000000000000                                                                                                  *
30133628655000168               200346237061810201901AMANDA APARECIDA GOMES                                                00000000093150929500050181020190511199405101000000000222601000000000000000    000000000000000000000000000000000000000000000000000000000000                                                                                                  *
30133628655000168               200713996791901202101ANDRE FEITOSA RAMOS                                                   00000000270004107800040190120211306199705101000000000199300000000000000000    000000000000000000000000000000000000000000000000000000000000                                                                                                  *
30133628655000168               201315995631510202001GABRIEL DUTRA OLIVEIRA                                                00000000229970987001220151020201907199905134000000000000001000000000000000    000000000000000000000000000000000000000000001000000000000000                                                                                                  *
32133628655000168               201315995631510202001GABRIEL DUTRA OLIVEIRA                                                I127022021S                                                                                                                                                                                                                                 *
30133628655000168               201337694150911202001FRANCOISE BISPO BEZERRA                                               00000000249797840900050091120202411199505134000000000027169000000000011340    000000000000000000000000000000000000000011340000000000000000                                                                                                  *
32133628655000168               201337694150911202001FRANCOISE BISPO BEZERRA                                               I306022021S                                                                                                                                                                                                                                 *
30133628655000168               203119590100309202001KAROLINE EMANUELLE WENDLER                                            00000000204834552400040030920201905200005134000000000132300000000000000000    000000000000000000000000000000000000000000000000000000000000                                                                                                  *
30133628655000168               204679391222010202001ANA PAULA MACENO                                                      00000000236947427000040201020203008199905134000000000136388000000000000000    000000000000000000000000000000000000000000000000000000000000                                                                                                  *
30133628655000168               206527313031412202001RICHARD LENNON MAIA                                                   00000000267671976000030141220202810199605134000000000112344000000000000000    000000000000000000000000000000000000000000000000000000000000                                                                                                  *
32133628655000168               206527313031412202001RICHARD LENNON MAIA                                                   P324022021                                                                                                                                                                                                                                  *
32133628655000168               206527313031412202001RICHARD LENNON MAIA                                                   Z525022021                                                                                                                                                                                                                                  *
30133628655000168               207646603511907201901ALLYSSON BARRETO                                                      00000000009221142600003190720190710199401415000000000413000000000000000000    000000000000000000000000000000000000000000000000000000000000                                                                                                  *
30133628655000168               209553920172210202001GISLENE LIMA BARBOSA                                                  00000000239702622200030221020202912199205134000000000123480000000000000000    000000000000000000000000000000000000000000000000000000000000                                                                                                  *
30133628655000168               210178275502211201901ERICK LUCAS TEZCK                                                     00000000142833695500001221120191112198903131000000000340193000000000000000    000000000000000000000000000000000000000000000000000000000000                                                                                                  *
30133628655000168               210184420912311202001JULIA CORDOVA                                                         00000000255208472700040231120202706199705134000000000135592000000000000000    000000000000000000000000000000000000000000000000000000000000                                                                                                  *
32133628655000168               210184420912311202001JULIA CORDOVA                                                         P329012021                                                                                                                                                                                                                                  *
32133628655000168               210184420912311202001JULIA CORDOVA                                                         Z505022021                                                                                                                                                                                                                                  *
30133628655000168               210524965221901202101LUAN LIZARTI FRONSTAK                                                 00000000271988718900040190120210702199905134000000000132300000000000000000    000000000000000000000000000000000000000000000000000000000000                                                                                                  *
30133628655000168               212821641732311202001MIKAELA MELO DOS SANTOS AZEVEDO                                       00000000258591513200040231120201607199805134000000000000001000000000000000    000000000000000000000000000000000000000000001000000000000000                                                                                                  *
32133628655000168               212821641732311202001MIKAELA MELO DOS SANTOS AZEVEDO                                       P309022021                                                                                                                                                                                                                                  *
32133628655000168               212821641732311202001MIKAELA MELO DOS SANTOS AZEVEDO                                       Z510022021                                                                                                                                                                                                                                  *
32133628655000168               212821641732311202001MIKAELA MELO DOS SANTOS AZEVEDO                                       P310022021                                                                                                                                                                                                                                  *
32133628655000168               212821641732311202001MIKAELA MELO DOS SANTOS AZEVEDO                                       Z512022021                                                                                                                                                                                                                                  *
32133628655000168               212821641732311202001MIKAELA MELO DOS SANTOS AZEVEDO                                       P316022021                                                                                                                                                                                                                                  *
32133628655000168               212821641732311202001MIKAELA MELO DOS SANTOS AZEVEDO                                       Z517022021                                                                                                                                                                                                                                  *
32133628655000168               212821641732311202001MIKAELA MELO DOS SANTOS AZEVEDO                                       P317022021                                                                                                                                                                                                                                  *
32133628655000168               212821641732311202001MIKAELA MELO DOS SANTOS AZEVEDO                                       Z518022021                                                                                                                                                                                                                                  *
32133628655000168               212821641732311202001MIKAELA MELO DOS SANTOS AZEVEDO                                       P318022021                                                                                                                                                                                                                                  *
32133628655000168               212821641732311202001MIKAELA MELO DOS SANTOS AZEVEDO                                       Z525022021                                                                                                                                                                                                                                  *
32133628655000168               212821641732311202001MIKAELA MELO DOS SANTOS AZEVEDO                                       I127022021S                                                                                                                                                                                                                                 *
30133628655000168               212957619491510202001JESUS ALEXANDER MATA CARVAJAL                                         00000000228708855603247151020202303200105134000000000132300000000000000000    000000000000000000000000000000000000000000000000000000000000                                                                                                  *
32133628655000168               212957619491510202001JESUS ALEXANDER MATA CARVAJAL                                         P307022021                                                                                                                                                                                                                                  *
32133628655000168               212957619491510202001JESUS ALEXANDER MATA CARVAJAL                                         Z509022021                                                                                                                                                                                                                                  *
30133628655000168               236175025002709201901SAMUEL CARLOS DO VALE FERREIRA SANTOS                                 00000000069694576000040270920190901199808401000000000150181000000000000000    000000000000000000000000000000000000000000000000000000000000                                                                                                  *
30133628655000168               268914040781901202101YUBIRI DE LOS ANGELES BARRETO CARDOZO                                 00000000273080169400040190120212209199305134000000000135322000000000000000    000000000000000000000000000000000000000000000000000000000000                                                                                                  *
32133628655000168               268914040781901202101YUBIRI DE LOS ANGELES BARRETO CARDOZO                                 P316022021                                                                                                                                                                                                                                  *
32133628655000168               268914040781901202101YUBIRI DE LOS ANGELES BARRETO CARDOZO                                 Z521022021                                                                                                                                                                                                                                  *
10133628655000249000000000000000000000000000000000000GROSSI COMERCIO DE ALIMENTOS LTDA       CANDIDO DE ABREU 127                              CENTRO CIVICO       80530900CURITIBA            PR  4130288000N5611203P300151501152100     000000000020508000000000000000000000000000000000000000000000                000000000000000000000000000000000000000000000    *
30133628655000249               148523197031412202001JESUS ERNESTO ABREU PEREIRA                                           00000000265709251507260141220202412200005134000000000134856000000000000000    000000000000000000000000000000000000000000000000000000000000                                                                                                  *
30133628655000249               149774526540212201901KENELA ANDRESSA DEMINCIANO LIMA                                       00000000150235422500050021220190107199905134000000000132300000000000000000    000000000000000000000000000000000000000000000000000000000000                                                                                                  *
32133628655000249               149774526540212201901KENELA ANDRESSA DEMINCIANO LIMA                                       P306022021                                                                                                                                                                                                                                  *
32133628655000249               149774526540212201901KENELA ANDRESSA DEMINCIANO LIMA                                       Z516022021                                                                                                                                                                                                                                  *
30133628655000249               150697229332909202001RICHARD ARGENIS VARELA ARIAS                                          00000000217045407700001290920202706199705134000000000136851000000000000000    000000000000000000000000000000000000000000000000000000000000                                                                                                  *
30133628655000249               153159514252708202001ERYCK JOSE DIAZ PEREZ                                                 00000000202035357000001270820202807199705134000000000135579000000000000000    000000000000000000000000000000000000000000000000000000000000                                                                                                  *
32133628655000249               153159514252708202001ERYCK JOSE DIAZ PEREZ                                                 P318022021                                                                                                                                                                                                                                  *
32133628655000249               153159514252708202001ERYCK JOSE DIAZ PEREZ                                                 Z521022021                                                                                                                                                                                                                                  *
30133628655000249               160884753911308202001ALINE DA SILVA AMARAL                                                 00000000198684608300040130820200911199508401000000000150000000000000000000    000000000000000000000000000000000000000000000000000000000000                                                                                                  *
32133628655000249               160884753911308202001ALINE DA SILVA AMARAL                                                 P301022021                                                                                                                                                                                                                                  *
32133628655000249               160884753911308202001ALINE DA SILVA AMARAL                                                 Z502022021                                                                                                                                                                                                                                  *
32133628655000249               160884753911308202001ALINE DA SILVA AMARAL                                                 P309022021                                                                                                                                                                                                                                  *
32133628655000249               160884753911308202001ALINE DA SILVA AMARAL                                                 Z517022021                                                                                                                                                                                                                                  *
30133628655000249               162547109951110201901JOSE CARLOS MARTINS JUNIOR                                            00000000082009173900390111020192307200008401000000000154412000000000000000    000000000000000000000000000000000000000000000000000000000000                                                                                                  *
30133628655000249               165892683991810201901SHEILA ALVES DA COSTA DA SILVA                                        00000000099833234600040181020192812199908401000000000144910000000000000000    000000000000000000000000000000000000000000000000000000000000                                                                                                  *
30133628655000249               165972676060102202101SARON FORTUNATO DA SILVA                                              00000000268002350100044010220211611200005134000000000134142000000000000000    000000000000000000000000000000000000000000000000000000000000                                                                                                  *
30133628655000249               166016264662409202001SOLANGE FORTES ALVES                                                  00000000212000393500408240920201607199705134000000000132353000000000000000    000000000000000000000000000000000000000000000000000000000000                                                                                                  *
30133628655000249               166107717323011202001THAYNA CRISTINA DOS SANTOS LIMA                                       00000000262889165000040301120201402199705134000000000132300000000000000000    000000000000000000000000000000000000000000000000000000000000                                                                                                  *
32133628655000249               166107717323011202001THAYNA CRISTINA DOS SANTOS LIMA                                       P306022021                                                                                                                                                                                                                                  *
32133628655000249               166107717323011202001THAYNA CRISTINA DOS SANTOS LIMA                                       Z514022021                                                                                                                                                                                                                                  *
30133628655000249               200216441142205202001REVERSON KAUAN DE FARIA BORDINHAO                                     00000000180290800100040220520202601199705134000000000136309000000000000000    000000000000000000000000000000000000000000000000000000000000                                                                                                  *
30133628655000249               200225797582806201901THIAGO TEIXEIRA DA SILVA                                              00000000005923087300003280620191409199501415000000000413000000000000000000    000000000000000000000000000000000000000000000000000000000000                                                                                                  *
30133628655000249               201350941800111201901ANA BEATRIS ALVES JERONIMO                                            00000000115508837300060011120193011200005101000000000206970000000000000000    000000000000000000000000000000000000000000000000000000000000                                                                                                  *
30133628655000249               203055395951910202001THULIO CHAVES                                                         00000000233208568800040191020201204199605101000000000205395000000000000000    000000000000000000000000000000000000000000000000000000000000                                                                                                  *
30133628655000249               206026441131810201901MANOEL AUGUSTO FELIX DOS SANTOS                                       00000000096857907800030181020191610199508401000000000156119000000000000000    000000000000000000000000000000000000000000000000000000000000                                                                                                  *
30133628655000249               207373131660710202001DANIELLY CARVALHO DE OLIVEIRA                                         00000000224421779800060071020202303199905134000000000130969000000000000000    000000000000000000000000000000000000000000000000000000000000                                                                                                  *
32133628655000249               207373131660710202001DANIELLY CARVALHO DE OLIVEIRA                                         P304022021                                                                                                                                                                                                                                  *
32133628655000249               207373131660710202001DANIELLY CARVALHO DE OLIVEIRA                                         Z513022021                                                                                                                                                                                                                                  *
30133628655000249               207462022822009201901JANAINA DOS REIS MORAIS                                               00000000062821163000030200920191105199405134000000000140719000000000000000    000000000000000000000000000000000000000000000000000000000000                                                                                                  *
32133628655000249               207462022822009201901JANAINA DOS REIS MORAIS                                               P312022021                                                                                                                                                                                                                                  *
32133628655000249               207462022822009201901JANAINA DOS REIS MORAIS                                               Z517022021                                                                                                                                                                                                                                  *
32133628655000249               207462022822009201901JANAINA DOS REIS MORAIS                                               P322022021                                                                                                                                                                                                                                  *
30133628655000249               212039101951606202001ATYLA TABATTO LEMES DE GOIS                                           00000000192356575600060160620203004200105134000000000134561000000000000000    000000000000000000000000000000000000000000000000000000000000                                                                                                  *
32133628655000249               212039101951606202001ATYLA TABATTO LEMES DE GOIS                                           P318022021                                                                                                                                                                                                                                  *
32133628655000249               212039101951606202001ATYLA TABATTO LEMES DE GOIS                                           Z526022021                                                                                                                                                                                                                                  *
30133628655000249               212817536632211201901ERICLECIA DE LIRA GREGORIO                                            00000000129541525500040221120192405199505101000000000200623000000000000000    000000000000000000000000000000000000000000000000000000000000                                                                                                  *
32133628655000249               212817536632211201901ERICLECIA DE LIRA GREGORIO                                            P309022021                                                                                                                                                                                                                                  *
32133628655000249               212817536632211201901ERICLECIA DE LIRA GREGORIO                                            Z519022021                                                                                                                                                                                                                                  *
30133628655000249               212823407452710202001SUELLEM LETICIA LIMA SILVA                                            00000000243630301800040271020202308199905134000000000132300000000000000000    000000000000000000000000000000000000000000000000000000000000                                                                                                  *
30133628655000249               212874894530911202001GIOVANE VARGAS                                                        00000000248799750600040091120201209199905134000000000132300000000000000000    000000000000000000000000000000000000000000000000000000000000                                                                                                  *
30133628655000249               212957607051510202001ANYELO ABRAHAM CARVAJAL                                               00000000231708919504228151020201108199905134000000000132300000000000000000    000000000000000000000000000000000000000000000000000000000000                                                                                                  *
32133628655000249               212957607051510202001ANYELO ABRAHAM CARVAJAL                                               P308022021                                                                                                                                                                                                                                  *
32133628655000249               212957607051510202001ANYELO ABRAHAM CARVAJAL                                               Z510022021                                                                                                                                                                                                                                  *
30133628655000249               268610391002311202001ANA FLAVIA APOLINARIO PIRES                                           00000000252000368800032231120201812200105134000000000132300000000000000000    000000000000000000000000000000000000000000000000000000000000                                                                                                  *
32133628655000249               268610391002311202001ANA FLAVIA APOLINARIO PIRES                                           P304022021                                                                                                                                                                                                                                  *
32133628655000249               268610391002311202001ANA FLAVIA APOLINARIO PIRES                                           Z511022021                                                                                                                                                                                                                                  *
10133628655000320000000000000000000000000000000000000GROSSI COMERCIO DE ALIMENTOS LTDA       SETE DE SETEMBRO 2775                             REBOUCAS            80220000CURITIBA            PR  4130288000N5611203P300151501152100     000000000051270000000000000000000000000000000000000000000000                000000000000000000000000000000000000000000000    *
14133628655000320000000000000000000000000000000000000156378397710102202101THIAGO GODOY SANTOS                                                   472236200050MARIA HOMAN WISNIEWSKI 850 AP 12 BL 3             CIC                 81170300CURITIBA            PR                                                                                                       *
30133628655000320               134440358441510202001ANYELIS PAOLA ALCALA PENA                                             00000000232039837600001151020202911199105134000000000123480000000000000000    000000000000000000000000000000000000000000000000000000000000                                                                                                  *
32133628655000320               134440358441510202001ANYELIS PAOLA ALCALA PENA                                             P322022021                                                                                                                                                                                                                                  *
32133628655000320               134440358441510202001ANYELIS PAOLA ALCALA PENA                                             Z524022021                                                                                                                                                                                                                                  *
30133628655000320               137309785502008202001LUISA CAROLINE FARIAS                                                 00000000200868046900050200820202706200005134000000000132481000000000000000    000000000000000000000000000000000000000000000000000000000000                                                                                                  *
32133628655000320               137309785502008202001LUISA CAROLINE FARIAS                                                 P325022021                                                                                                                                                                                                                                  *
32133628655000320               137309785502008202001LUISA CAROLINE FARIAS                                                 Z528022021                                                                                                                                                                                                                                  *
30133628655000320               145914328032409202001YOAGNELIS CAROLINA PEREZ MACADAN                                      00000000216049844900001240920201012200005134000000000123370000000000000000    000000000000000000000000000000000000000000000000000000000000                                                                                                  *
30133628655000320               148739853621408201901MONIQUE EVELYN OLIVEIRA PETERSEN                                      00000000021988105300040140820190912199908401000000000005000000000000000000    000000000000000000000000000000000000000000000000000000000000                                                                                                  *
32133628655000320               148739853621408201901MONIQUE EVELYN OLIVEIRA PETERSEN                                      P222112020                                                                                                                                                                                                                                  *
32133628655000320               148739853621408201901MONIQUE EVELYN OLIVEIRA PETERSEN                                      Z520022021                                                                                                                                                                                                                                  *
32133628655000320               148739853621408201901MONIQUE EVELYN OLIVEIRA PETERSEN                                      P223022021                                                                                                                                                                                                                                  *
30133628655000320               153531379342211201901GABRIELE THAINARA BRIERE                                              00000000126152169400050221120192310200105134000000000137082000000000000000    000000000000000000000000000000000000000000000000000000000000                                                                                                  *
30133628655000320               156378397710102202101THIAGO GODOY SANTOS                                                   00000000278472236200050010220213004200205134000000000013412000000000000000    000000000000000000000000000000000000000000000000000000000000                                                                                                  *
32133628655000320               156378397710102202101THIAGO GODOY SANTOS                                                   J 03022021                                                                                                                                                                                                                                  *
30133628655000320               158563092711006201901DAVID ARNEDO GALLEGOS                                                 00000000001034979500001100620192602197601415000000000472655000000000000000    000000000000000000000000000000000000000000000000000000000000                                                                                                  *
30133628655000320               160051245452009201901ANA PAULA DE OLIVEIRA ALVES                                           00000000059095531500003200920191401199108401000000000155696000000000000000    000000000000000000000000000000000000000000000000000000000000                                                                                                  *
30133628655000320               160911203530810202001AIME RAFAELA DOS SANTOS                                               00000000221538527900050081020201012200105134000000000123480000000000000000    000000000000000000000000000000000000000000000000000000000000                                                                                                  *
32133628655000320               160911203530810202001AIME RAFAELA DOS SANTOS                                               P324022021                                                                                                                                                                                                                                  *
32133628655000320               160911203530810202001AIME RAFAELA DOS SANTOS                                               Z525022021                                                                                                                                                                                                                                  *
30133628655000320               161276953772709201901EDSON LUIZ RIBEIRO JUNIOR                                             00000000074738854200040270920191408199908401000000000147093000000000000000    000000000000000000000000000000000000000000000000000000000000                                                                                                  *
30133628655000320               162335060431609201901JOSE DARCI SETNI                                                      00000000053482361600001160920192103198505134000000000132300000000000000000    000000000000000000000000000000000000000000000000000000000000                                                                                                  *
30133628655000320               163031095520911202001GABRIEL GOMES DE SOUZA                                                00000000245473562000050091120201711200005134000000000137286000000000000000    000000000000000000000000000000000000000000000000000000000000                                                                                                  *
30133628655000320               163908135631506202001CLEITON FRAGOZO DE OLIVEIRA                                           00000000190234973200050150620202909199605134000000000137296000000000000000    000000000000000000000000000000000000000000000000000000000000                                                                                                  *
30133628655000320               165906476832709201901PABLO HENRIQUE CORDEIRO                                               00000000068740030700040270920192007199905101000000000255021000000000000000    000000000000000000000000000000000000000000000000000000000000                                                                                                  *
30133628655000320               166332052450309202001SUZANE REGINA DO NASCIMENTO DA CUNHA                                  00000000206319572300050030920201605199805134000000000132300000000000000000    000000000000000000000000000000000000000000000000000000000000                                                                                                  *
32133628655000320               166332052450309202001SUZANE REGINA DO NASCIMENTO DA CUNHA                                  P305022021                                                                                                                                                                                                                                  *
32133628655000320               166332052450309202001SUZANE REGINA DO NASCIMENTO DA CUNHA                                  Z506022021                                                                                                                                                                                                                                  *
30133628655000320               166348628781107201901WILLIAN FERNANDES                                                     00000000007067806000040110720191310198904110000000000310434000000000000000    000000000000000000000000000000000000000000000000000000000000                                                                                                  *
30133628655000320               200889151282308201901NELSON FELIPE NAUMETS                                                 00000000040792162300030230820191302199505101000000000205060000000000000000    000000000000000000000000000000000000000000000000000000000000                                                                                                  *
30133628655000320               201636786390608202001MIRELLA GUTZ CAVALLI                                                  00000000195535598100050060820202001199805134000000000132300000000000000000    000000000000000000000000000000000000000000000000000000000000                                                                                                  *
30133628655000320               203053901250810202001MARILEIA LETICIA MARTINS DOS SANTOS                                   00000000225087856700050081020202010199805134000000000112416000000000000000    000000000000000000000000000000000000000000000000000000000000                                                                                                  *
32133628655000320               203053901250810202001MARILEIA LETICIA MARTINS DOS SANTOS                                   P314022021                                                                                                                                                                                                                                  *
32133628655000320               203053901250810202001MARILEIA LETICIA MARTINS DOS SANTOS                                   Z521022021                                                                                                                                                                                                                                  *
30133628655000320               203114354611411201901GILBERTO INFANTE JUNIOR                                               00000000112987905800040141120191909200005134000000000137303000000000000000    000000000000000000000000000000000000000000000000000000000000                                                                                                  *
30133628655000320               204128774190712202001THAYNA ESCANDIEL DOS SANTOS                                           00000000264811283600030071220201002199505134000000000137254000000000000000    000000000000000000000000000000000000000000000000000000000000                                                                                                  *
30133628655000320               204198560260610202001THAYS GUIMARAES DA SILVA                                              00000000219001608800074061020200309199405134000000000137180000000000000000    000000000000000000000000000000000000000000000000000000000000                                                                                                  *
30133628655000320               209381434030309202001JULIANA PIMENTEL                                                      00000000205432313800040030920201105199605134000000000132300000000000000000    000000000000000000000000000000000000000000000000000000000000                                                                                                  *
90999999999999999999999999999999999999999999999999999                                                                                                                                                                                                                                                                                                                  *
