00                                                   1107160642000105CONTAC SERVICOS CONTABEIS LTDACLAUDIO CECHINEL    RUA FARROUPILHA 49                                CENTRO              85877000SAO MIGUEL DO IGUACUPR004535652650contac@innet.com.br                                         2020081151         1               100910509001305                  *
10104404625000170000000000000000000000000000000000000HULLER LAZZERIS LTDA                    Rua ALFREDO CHAVES 567                            CENTRO              85877000SAO MIGUEL DO IGUACUPR004535651380N4731800P300151501152100     000000000004862000000000000000000000000000000000000000000000                000000000000000000000000000000000000000000000    *
30104404625000170               106946633090906201401ALBINO COSCODE                                                        00000000051003518000455090620142604196005211000000000262187000000000000000    000000000000000000000000000000000000000000000000000000000000                                                                                                  *
30104404625000170               107314278550109200501JOSE OSMAR DA SILVA                                                   00000000015839069800001010920051704196305211000000000260440000000000000000    000000000000000000000000000000000000000000000000000000000000                                                                                                  *
30104404625000170               113965527100105200111JUNIOR CEZAR LAZZERIS                                                 00000000001                            01210000000000150000000000000000000  05000000000016500000000000000000000000000000000000000000000000                                                                                                  *
30104404625000170               116659772930105200111SANDRA MARISA HULLER LAZZERIS                                         00000000002                            01210000000000240000000000000000000    000000000000000000000000000000000000000000000000000000000000                                                                                                  *
30104404625000170               122539990340107201101DONATO MACHADO                                                        00000000035006100700022010720110808196705211000000000311443000000000000000    000000000000000000000000000000000000000000000000000000000000                                                                                                  *
30104404625000170               125078374560201200901ADEMIR MARCHESINI                                                     00000000022009911200045020120092112197505211000000000343112000000000000000    000000000000000000000000000000000000000000000000000000000000                                                                                                  *
30104404625000170               125080018820209201301JOAO CARLOS DE MELO                                                   00000000046241512800020020920130503197505211000000000258082000000000000000    000000000000000000000000000000000000000000000000000000000000                                                                                                  *
30104404625000170               125581315262206201901ALEXANDRO PEREIRA                                                     00000000067001787400050220620193005197505211000000000262187000000000000000    000000000000000000000000000000000000000000000000000000000000                                                                                                  *
30104404625000170               128202535140205201501SAULO PEDRO FERRARI                                                   00000000055004114600052020520153101197805211000000000260440000000000000000    000000000000000000000000000000000000000000000000000000000000                                                                                                  *
30104404625000170               128859445110311200901DOUGLAS CRISTHIAN DE ABREU                                            00000000025332265700010031120091804198304211000000000262187000000000000000    000000000000000000000000000000000000000000000000000000000000                                                                                                  *
30104404625000170               129329784990108201601KALINKA CRISTIANE DE ABREU NIENOW                                     00000000059477173900010010820160401198704110000000000267621000000000000000    000000000000000000000000000000000000000000000000000000000000                                                                                                  *
30104404625000170               152721711480201201701JACKSON SCHMITT FRASSON                                               00000000060002274900013020120172405199305211000000000262187000000000000000    000000000000000000000000000000000000000000000000000000000000                                                                                                  *
30104404625000170               154374562750703201801MARCIANO MACHADO ALONCO                                               00000000065858292900030070320181305198905211000000000258082000000000000000    000000000000000000000000000000000000000000000000000000000000                                                                                                  *
30104404625000170               200582508290205201701PEDRINA PINHEIRO DE LIMA                                              00000000061475954700001020520172009198005141000000000079126000000000000000    000000000000000000000000000000000000000000000000000000000000                                                                                                  *
30104404625000170               203479049331402201401THIAGO LAZZERIS                                                       00000000049789792500030140220141512199304110000000000289325000000000000000    000000000000000000000000000000000000000000000000000000000000                                                                                                  *
30104404625000170               203479049410411201907GUILHERME LAZZERIS                                                    00000000068493514400060041120192509200004110000000000082748000000000000000    000000000000000000000000000000000000000000000000000000000000                                                                                                  *
30104404625000170               203957876900106202001AGUINALDO DA SILVA RODRIGUES                                          00000000070839007400010010620201009198605211000000000262187000000000000000    000000000000000000000000000000000000000000000000000000000000                                                                                                  *
30104404625000170               206339098280603202001PAULA LETICIA GUILHERME                                               00000000069674501600030060320201112199204110000000000214297000000000000000    000000000000000000000000000000000000000000000000000000000000                                                                                                  *
90999999999999999999999999999999999999999999999999999                                                                                                                                                                                                                                                                                                                  *
