00                                                   1178678851000185LIDERANCA CONTABILIDADE LTDA  ADEMIR KOPEGINSKI   RUA DOM PEDRO II 2129                             CENTRO              85902010TOLEDO              PR004530553131escritorio@lidercontabil.com                                2018081151         1               100910509001305                  *
10174090812000101000000000000000000000000000000000000AUTO POSTO TRANSYARA EIRELI             Avenida MINISTRO CIRNE LIMA 2265                  JD COOPAGRO         85903590TOLEDO              PR004532522944N4731800P300151501152100     000000000000000000000000000000000000000000000000000000000000                000000000000000000000000000000000000000000000    *
30174090812000101               108864750120207200801EDMAR FERNANDES DA COSTA                                              00000000038117095900010020720080310196205211000000000166337000000000000000    000000000000000000000000000000000000000000000000000000000000                                                                                                  *
30174090812000101               113529929941701199411IVO GRIZZA                                                            00000000001                            02521000000000095400000000000000000    000000000000000000000000000000000000000000000000000000000000                                                                                                  *
30174090812000101               125160225910503199701MARCIO ANDRE MORSCH                                                   00000000007000879600038050319970111197405211000000000194059000000000000000    000000000000000000000000000000000000000000000000000000000000                                                                                                  *
30174090812000101               125161212710205201401MARCIO JOSE LAZZARI                                                   00000000077002763000047020520142308197807825000000000250380000000000000000    000000000000000000000000000000000000000000000000000000000000                                                                                                  *
30174090812000101               126570045220202201501RUI DICKEL                                                            00000000085004320100052020220152211197805211000000000197482000000000000000    000000000000000000000000000000000000000000000000000000000000                                                                                                  *
30174090812000101               126833174940107200401ADEMIR FAGUNDES DE OLIVEIRA                                           00000000022000789000037010720041308196005211000000000166080000000000000000    000000000000000000000000000000000000000000000000000000000000                                                                                                  *
30174090812000101               127168645880106201401LUIZ CARLOS DA SILVA                                                  00000000078635051200040010620141201198105211000000000210956000000000000000    000000000000000000000000000000000000000000000000000000000000                                                                                                  *
30174090812000101               127526605123001201701FABIO RODRIGO MULLER DE LIMA                                          00000000093068477700010300120171501198405211000000000189380000000000000000    000000000000000000000000000000000000000000000000000000000000                                                                                                  *
30174090812000101               128284284962310201701EDCARLOS MARTINS DO NASCIMENTO                                        00000000094740273600040231020173010198305211000000000199718000000000000000    000000000000000000000000000000000000000000000000000000000000                                                                                                  *
30174090812000101               129255785021512201401EDERSON PONTES MARTINS                                                00000000084386146200010151220142312198405211000000000177794000000000000000    000000000000000000000000000000000000000000000000000000000000                                                                                                  *
30174090812000101               129935505292811201701FERNANDO LUIZ SFOLIA                                                  00000000095692502600010281120172804198605211000000000189038000000000000000    000000000000000000000000000000000000000000000000000000000000                                                                                                  *
30174090812000101               129939085121012201201FRANCIELE DA SILVA RIBEIRO                                            00000000068692603800001101220122111198604110000000000406475000000000000000    000000000000000000000000000000000000000000000000000000000000                                                                                                  *
30174090812000101               130269085080403201101SILVANO PEREIRA DOS SANTOS                                            00000000054838409700010040320112810198205211000000000254610000000000000000    000000000000000000000000000000000000000000000000000000000000                                                                                                  *
30174090812000101               165698769110808201601SUE HELEN DA SILVA SANTOS MOREIRA                                     00000000089346932400030080820160408198204211000000000185259000000000000000    000000000000000000000000000000000000000000000000000000000000                                                                                                  *
30174090812000101               206260936051902201807THIAGO GONCALVES DE OLIVEIRA                                          00000000096635393300040190220183011199905211000000000060002000000000000000    000000000000000000000000000000000000000000000000000000000000                                                                                                  *
90999999999999999999999999999999999999999999999999999                                                                                                                                                                                                                                                                                                                  *
