00                                                   1200142581140108ESCRITORIO DE CONTABILIDADE IASEBASTIAO AMANCIO IARUA SIQUEIRA CAMPOS 109                           CENTRO              84261110TELEMACO BORBA      PR42  32720827denyrh@ianke.com.br                                         2021041502 140520211               100364351000181                  *
10102601155000109000000000000000000000000000000000000C M DE MATOS CIA LTDA                   AV TUPINIQUINS 34                                 BNH                 84265290TELEMACO BORBA      PR42  32722773N4120400P300150700792100     000000000000000000000000000000000000000000000000000000000000                000000000000000000000000000000000000000000000    *
12102601155000109000000000000000000000000000000000000000000000000000000000000000000 000000000000000000000000000000                                000000000000000            000000000000000000000000000000000000000000000000000000000000000000000000000000000000000000000000000000000000000000000000000000000000000000000000000000000000000000000000000000000000      *
20102601155000109103944724000262000000000000000000000KEMIRA CHEMICALS BRASIL LTDA            ROD DO PAPEL PR 160 KM 16 SN                      TRIANGULO           84269000TELEMACO BORBA      PR    000000000000000000000000000000000000000000000000000000097004000000000000000000000000000000000000000000000000000000000000                                          *
21102601155000109103944724000262000000000000000000000000000000117544202104202104000000000000000000000000000000000000000000000000000000000000000000000000000                                                                                                                                                                                                            *
30102601155000109103944724000262124987575562507201901JOAQUIM APARECIDO DA SILVA                                                       002864200045250720192108197407157000000000243075000000000000000    000000000000000000000000000000000000000000000000000000000000                                                                                                  *
30102601155000109103944724000262127663275272005201501DENILSON RODRIGUES BISCAIA                                                       006009800055200520150102198207102000000000344643000000000000000    000000000000000000000000000000000000000000000000000000000000                                                                                                  *
20102601155000109103944724000777000000000000000000000KEMIRA CHEMICALS BRASIL LTDA            R 7A SN                                           NATINGUI            84350000TELEMACO BORBA      PR    000000000000000000000000000000000000000000000000000000000000000000000000000000000000000000000000000000000000000000000000                                          *
21102601155000109103944724000777000000000000000000000000000000098935202104202104000000000000000000000000000000000000000000000000000000000000000000000000000                                                                                                                                                                                                            *
30102601155000109103944724000777107059914711309201901JOSE DE FRANCA                                                                   018572800001130920191505195807170000000000171728000000000000000    000000000000000000000000000000000000000000000000000000000000                                                                                                  *
30102601155000109103944724000777125928765120109202001CELSO DE OLIVEIRA LIMA                                                           858756200050010920201603197207102000000000322946000000000000000    000000000000000000000000000000000000000000000000000000000000                                                                                                  *
20102601155000109181399230000177000000000000000000000IKAPE EMPREENDIMENTOS LTDA              FAZ MONTE ALEGRE SN                               HARMONIA            84261090TELEMACO BORBA      PR    000000000000000000000000000000000000000000000000000000000000000000000000000000000000000000000000000000000000000000000000                                          *
21102601155000109181399230000177000000000000000000000000000000213299202104202104000000000000000000000000000000000000000000000000000000000000000000000000000                                                                                                                                                                                                            *
30102601155000109181399230000177108124546150402202001BERNARDINO JOSE SOUZA                                                            302737100003040220202707196107102000000000343567000000000000000    000000000000000000000000000000000000000000000000000000000000                                                                                                  *
30102601155000109181399230000177125504629730402202001ANTONIO CLEUCIO MENDES MOREIRA                                                   004277700041040220200305197207157000000000289651000000000000000    000000000000000000000000000000000000000000000000000000000000                                                                                                  *
30102601155000109181399230000177165597970910402202001CHARLES DIAS RIBEIRO                                                             802885400040040220202807199107157000000000243080000000000000000    000000000000000000000000000000000000000000000000000000000000                                                                                                  *
30102601155000109181399230000177200316330850402202001ELIAS DA SILVA FOGACA                                                            693885600050040220202702199907170000000000190196000000000000000    000000000000000000000000000000000000000000000000000000000000                                                                                                  *
20102601155000109189637490013395000000000000000000000KLABIN SA                               FAZ MONTE ALEGRE SN                               HARMONIA            84275000TELEMACO BORBA      PR    000000000041016000000000000000000000000000000000000001312962000000000000000000000000000000000000000000000000000000000000                                          *
21102601155000109189637490013395000000000000000000000000000003846327202104202104000000000000000000000000000000000000000000000000000000000000000000000000000                                                                                                                                                                                                            *
30102601155000109189637490013395107877942760402202001EDSON ALMEIDA DE OLIVEIRA                                                        302845500003040220202803196007157000000000269600000000000000000    000000000000000000000000000000000000000000000000000000000000                                                                                                  *
30102601155000109189637490013395108829081191905202001JOSE FERNANDES                                                                   764372900001190520203112196307157000000000238201000000000000000    000000000000000000000000000000000000000000000000000000000000                                                                                                  *
30102601155000109189637490013395120602453642408202001LAUDEMIRO PEREIRA DE PAULA                                                       676176000030240820202107196307157000000000228076000000000000000    000000000000000000000000000000000000000000000000000000000000                                                                                                  *
30102601155000109189637490013395120951565030402202001VALDEVINO ALVES DOS SANTOS                                                       136194100001040220203105196607157000000000000660000000000000000    000000000000000000000000000000000000000000000000000000000000                                                                                                  *
32102601155000109189637490013395120951565030402202001VALDEVINO ALVES DOS SANTOS                                            P112032020                                                                                                                                                                                                                                  *
30102601155000109189637490013395121467744460402202001JOAO AMILTON CAMARGO                                                             004575000029040220200612196807157000000000253878000000000000000    000000000000000000000000000000000000000000000000000000000000                                                                                                  *
30102601155000109189637490013395121467747050402202001JOSIRAN PEREIRA DA SILVA                                                         521357500030040220202801197107157000000000255169000000000000000    000000000000000000000000000000000000000000000000000000000000                                                                                                  *
30102601155000109189637490013395122087379130402202001PEDRO OLIVEIRA DOS SANTOS                                                        494228900060040220200811196607157000000000260263000000000000000    000000000000000000000000000000000000000000000000000000000000                                                                                                  *
30102601155000109189637490013395122790293260402202001NOEL CORREIA                                                                     764826800001040220202510196507157000000000261629000000000000000    000000000000000000000000000000000000000000000000000000000000                                                                                                  *
30102601155000109189637490013395122858020661807201901ADILSON DE JESUS DOS SANTOS                                                      004282200021180720192001196807102000000000359164000000000000000    000000000000000000000000000000000000000000000000000000000000                                                                                                  *
30102601155000109189637490013395122900449801810201901ORLEY APARECIDO DOS SANTOS                                                       001031600018181020190305196607102000000000345196000000000000000    000000000000000000000000000000000000000000000000000000000000                                                                                                  *
30102601155000109189637490013395123027775592701202001NERY DE JESUS FORTES                                                             008089800026270120201405196807157000000000279659000000000000000    000000000000000000000000000000000000000000000000000000000000                                                                                                  *
30102601155000109189637490013395123088502230505201701ELIZEU ROSA DE OLIVEIRA                                                          008470100058050520172208197007157000000000243354000000000000000    000000000000000000000000000000000000000000000000000000000000                                                                                                  *
30102601155000109189637490013395123145965542005202001VALDEVINO MENDES FAGUNDES                                                        683989700060200520202103196607157000000000239215000000000000000    000000000000000000000000000000000000000000000000000000000000                                                                                                  *
30102601155000109189637490013395123597043800402202001IVO RODACOWSKI                                                                   008824500026040220202704196907102000000000349981000000000000000    000000000000000000000000000000000000000000000000000000000000                                                                                                  *
30102601155000109189637490013395123677093880402202001CELSON ANTONIO RODRIGUES                                                         435831400002040220201604197007170000000000215664000000000000000    000000000000000000000000000000000000000000000000000000000000                                                                                                  *
30102601155000109189637490013395124036631332701202001CLAUDIO ROBERTO DA SILVA                                                         385384100040270120200705197307102000000000338331000000000000000    000000000000000000000000000000000000000000000000000000000000                                                                                                  *
30102601155000109189637490013395124118790261108202001VANDIR TELLES                                                                    990426300050110820201212197307170000000000162930000000000000000    000000000000000000000000000000000000000000000000000000000000                                                                                                  *
30102601155000109189637490013395124216432700504202101REGINALDO LIMA                                                                   781786400050050420210409197507157000000000173246000000000000000    000000000000000000000000000000000000000000000000000000000000                                                                                                  *
30102601155000109189637490013395124512972651608201901VANDERLEI LEMES DOS SANTOS                                                       085424500002160820190705197407157000000000243079000000000000000    000000000000000000000000000000000000000000000000000000000000                                                                                                  *
30102601155000109189637490013395124512997640704202101VALDIVINO TORRES KAUS                                                            002652900023070420210910196807170000000000114555000000000000000    000000000000000000000000000000000000000000000000000000000000                                                                                                  *
30102601155000109189637490013395124512997720402202001IVAN DE MELLO                                                                    004169500034040220200607197307157000000000240076000000000000000    000000000000000000000000000000000000000000000000000000000000                                                                                                  *
30102601155000109189637490013395124512999340402202001EVERALDO DA APARECIDA ALVES RODRIGUES                                            869515005934040220202208197407102000000000468488000000000000000    000000000000000000000000000000000000000000000000000000000000                                                                                                  *
30102601155000109189637490013395124635208350109201501JOSE OLIVEIRA DE PROENCA                                                         005572600039010920150711196407102000000000343531000000000000000    000000000000000000000000000000000000000000000000000000000000                                                                                                  *
30102601155000109189637490013395124706436532801202001EDSON GOMES PEDROSO                                                              914571104968280120200308197307170000000000170967000000000000000    000000000000000000000000000000000000000000000000000000000000                                                                                                  *
30102601155000109189637490013395125032068501608201901EDMILSON PEDRO DA SILVA                                                          003670000010160820190902197607170000000000171764000000000000000    000000000000000000000000000000000000000000000000000000000000                                                                                                  *
30102601155000109189637490013395125490419271003202001MARCO FRANCISCO DE PAULA                                                         756512100001100320201404197607157000000000242582000000000000000    000000000000000000000000000000000000000000000000000000000000                                                                                                  *
30102601155000109189637490013395125505174412005201501JOSE JOARES PAES DE CAMARGO                                                      005328300032200520150809197107170000000000169973000000000000000    000000000000000000000000000000000000000000000000000000000000                                                                                                  *
30102601155000109189637490013395125573261880402202001CELSO DE ALMEIDA                                                                 926548000030040220202305198007157000000000239889000000000000000    000000000000000000000000000000000000000000000000000000000000                                                                                                  *
30102601155000109189637490013395125944334990402202001ORTENCIO LUIZ DE FRANCA                                                          001412000041040220200108197707157000000000240429000000000000000    000000000000000000000000000000000000000000000000000000000000                                                                                                  *
30102601155000109189637490013395126067364960203202101NILTON CESAR RIVAS                                                               683457900040020320212804197807157000000000202508000000000000000    000000000000000000000000000000000000000000000000000000000000                                                                                                  *
30102601155000109189637490013395126179454902701202001MARCELO SANTOS                                                                   689787400001270120202201197907157000000000241404000000000000000    000000000000000000000000000000000000000000000000000000000000                                                                                                  *
30102601155000109189637490013395126192065392801202001NATEL GUIMARAES                                                                  009570100052280120203004197707157000000000239480000000000000000    000000000000000000000000000000000000000000000000000000000000                                                                                                  *
30102601155000109189637490013395126253084962408202001SEBASTIAO RONALDO DE OLIVEIRA                                                    322072800050240820201101197907157000000000226222000000000000000    000000000000000000000000000000000000000000000000000000000000                                                                                                  *
30102601155000109189637490013395126481272500402202001SERGIO DE ALMEIDA                                                                409840100050040220202202198307157000000000279740000000000000000    000000000000000000000000000000000000000000000000000000000000                                                                                                  *
30102601155000109189637490013395126890155380402202001JOSMAIL DOS SANTOS RIBEIRO                                                       633878300040040220202211197407157000000000235021000000000000000    000000000000000000000000000000000000000000000000000000000000                                                                                                  *
30102601155000109189637490013395127263035030504202101PEDRO MENDES MATOS                                                               209319400040050420210304197207157000000000173310000000000000000    000000000000000000000000000000000000000000000000000000000000                                                                                                  *
30102601155000109189637490013395127419545010402202001RONALDO PEREIRA DE ALMEIDA                                                       007310900056040220201009198207157000000000243073000000000000000    000000000000000000000000000000000000000000000000000000000000                                                                                                  *
30102601155000109189637490013395127447185310402202001FABIO MARTINS                                                                    155128300050040220202601198107157000000000257083000000000000000    000000000000000000000000000000000000000000000000000000000000                                                                                                  *
30102601155000109189637490013395128126165140402202001LUCIANO RIBEIRO DE CAMPOS                                                        008659000052040220201912198007157000000000254174000000000000000    000000000000000000000000000000000000000000000000000000000000                                                                                                  *
30102601155000109189637490013395128237425080109202001BRAYNER FELIPE DE SOUZA MARTINS                                                  435406700002010920200809198403516000000000231117000000000000000    000000000000000000000000000000000000000000000000000000000000                                                                                                  *
30102601155000109189637490013395128550155200402202001CAIN FERREIRA PEDROSO                                                            122810200001040220202201198407157000000000255275000000000000000    000000000000000000000000000000000000000000000000000000000000                                                                                                  *
30102601155000109189637490013395128600335230402202001ANGELO HENRIQUE CORREIA                                                          494085200060040220200505198407157000000000238931000000000000000    000000000000000000000000000000000000000000000000000000000000                                                                                                  *
30102601155000109189637490013395128713225210110202001JOSNEI RIBEIRO                                                                   544882900060011020203005198607170000000000154790000000000000000    000000000000000000000000000000000000000000000000000000000000                                                                                                  *
30102601155000109189637490013395129019905190402202001JOAO MARIA FERREIRA DOS SANTOS                                                   099581800003040220202203198407170000000000198431000000000000000    000000000000000000000000000000000000000000000000000000000000                                                                                                  *
30102601155000109189637490013395129665175162801202001JOSE ADRIANO ANTUNES                                                             550701500001280120201310198507157000000000249821000000000000000    000000000000000000000000000000000000000000000000000000000000                                                                                                  *
30102601155000109189637490013395129702365260402202001IRAILSON DE PONTES MARTINS                                                       007193600056040220202209198007157000000000267508000000000000000    000000000000000000000000000000000000000000000000000000000000                                                                                                  *
30102601155000109189637490013395130451334940502202001JOELMA DE CAMARGO MARTINS                                                        893822600001050220200407198803516000000000243993000000000000000    000000000000000000000000000000000000000000000000000000000000                                                                                                  *
30102601155000109189637490013395135184662740201201201JEVERSON MARCONDES DE MATOS                                                      129373000002020120122711198802142000000001200000000000000000000    000000000000000000000000000000000000000000000000000000000000                                                                                                  *
30102601155000109189637490013395141306531872610202001NATALIA FRANCA SANTOS DE LIMA                                                    585915600050261020201502199903121000000000216273000000000000000    000000000000000000000000000000000000000000000000000000000000                                                                                                  *
30102601155000109189637490013395160065652270404201701ELOIR BARBOSA DE CAMPOS                                                          003884800295040420171807198607157000000000244751000000000000000    000000000000000000000000000000000000000000000000000000000000                                                                                                  *
30102601155000109189637490013395160359300510402202001ANDERSON FERREIRA RODRIGUES                                                      569504200030040220201508199207157000000000240805000000000000000    000000000000000000000000000000000000000000000000000000000000                                                                                                  *
30102601155000109189637490013395160364986681910202001EDMILSON DOS SANTOS ROCHA                                                        232396400001191020200102198907170000000000170014000000000000000    000000000000000000000000000000000000000000000000000000000000                                                                                                  *
30102601155000109189637490013395161457579660402202001DIEGO ALVES GALVAO                                                               633374300040040220202205199604141000000000184155000000000000000    000000000000000000000000000000000000000000000000000000000000                                                                                                  *
30102601155000109189637490013395161624015380402202001EDINEI DE JESUS OLIVEIRA                                                         001461600028040220200408198807157000000000238781000000000000000    000000000000000000000000000000000000000000000000000000000000                                                                                                  *
30102601155000109189637490013395162091176010402202001FERNANDO CAMARGO FERREIRA                                                        858835200050040220201503199107170000000000172630000000000000000    000000000000000000000000000000000000000000000000000000000000                                                                                                  *
30102601155000109189637490013395162094867200110202001JEFERSON GONCALVES                                                               693659100050011020202410198907157000000000222407000000000000000    000000000000000000000000000000000000000000000000000000000000                                                                                                  *
30102601155000109189637490013395162183991850402202001JOAO MATHEUS DOS SANTOS ALELUIA                                                  585668200050040220201812199807157000000000231548000000000000000    000000000000000000000000000000000000000000000000000000000000                                                                                                  *
30102601155000109189637490013395162404048030402202001JOHN VITOR BARBOSA DA SILVA                                                      537041300050040220200309199903121000000000307390000000000000000    000000000000000000000000000000000000000000000000000000000000                                                                                                  *
30102601155000109189637490013395163553663430402202001LEANDRO APARECIDO CARNEIRO                                                       100073200003040220200908199207157000000000235189000000000000000    000000000000000000000000000000000000000000000000000000000000                                                                                                  *
30102601155000109189637490013395163833095960402202001LEANDRO DE FREITAS                                                               971281100030040220201107199307170000000000188010000000000000000    000000000000000000000000000000000000000000000000000000000000                                                                                                  *
30102601155000109189637490013395165567134900402202001RODRIGO DE SOUZA                                                                 371975300002040220200709199007157000000000264446000000000000000    000000000000000000000000000000000000000000000000000000000000                                                                                                  *
30102601155000109189637490013395165596596320610202001VALDECIR RIBEIRO DOS SANTOS                                                      210481900040061020201112199007157000000000223098000000000000000    000000000000000000000000000000000000000000000000000000000000                                                                                                  *
30102601155000109189637490013395165597574050804202101VINICIUS SANTOS                                                                  100844700020080420212710199107157000000000153312000000000000000    000000000000000000000000000000000000000000000000000000000000                                                                                                  *
30102601155000109189637490013395165853166901805202001RAFAEL DE MOURA BISCAIA                                                          091137000050180520202808200104141000000000180025000000000000000    000000000000000000000000000000000000000000000000000000000000                                                                                                  *
30102601155000109189637490013395169815570030402202001VALDINEI RODRIGUES BISCAIA                                                       006098900050040220202102197807157000000000245941000000000000000    000000000000000000000000000000000000000000000000000000000000                                                                                                  *
30102601155000109189637490013395169815670091104201801JOSE CARLOS BISCAIA                                                              756403500050110420180108197607157000000000277690000000000000000    000000000000000000000000000000000000000000000000000000000000                                                                                                  *
30102601155000109189637490013395170459899010703201701FLAVIO FRANCISCO DE CAMPOS                                                       008658000036070320171812197307157000000000115527000000000000000    000000000000000000000000000000000000000000000000000000000000                                                                                                  *
30102601155000109189637490013395200389212560402202001MARCOS DE BRITO                                                                  554935000001040220200106197307157000000000235216000000000000000    000000000000000000000000000000000000000000000000000000000000                                                                                                  *
30102601155000109189637490013395200389212720402202001THAYRONE DE PAULA BRITO                                                          135899900040040220201801199607157000000000237530000000000000000    000000000000000000000000000000000000000000000000000000000000                                                                                                  *
30102601155000109189637490013395200389212800402202001WILLIAN DE PAULA BRITO                                                           475963700040040220202811199707157000000000241898000000000000000    000000000000000000000000000000000000000000000000000000000000                                                                                                  *
30102601155000109189637490013395200939405851309201901VALDEVINO APARECIDO MARTINS                                                      689247100001130920192104198807157000000000240389000000000000000    000000000000000000000000000000000000000000000000000000000000                                                                                                  *
30102601155000109189637490013395201396164402801202001ELIELSON ALAN SANTOS DE SOUZA                                                    646133100050280120200310199707157000000000241462000000000000000    000000000000000000000000000000000000000000000000000000000000                                                                                                  *
30102601155000109189637490013395204881030582004202001PEDRO HENRIQUE VITORINO LEMES DOMINGUES                                          009805400448200420202310200007157000000000227914000000000000000    000000000000000000000000000000000000000000000000000000000000                                                                                                  *
30102601155000109189637490013395206594948460109202001VALDIR OLIVEIRA COSTA                                                            006309000057010920200703198007157000000000226679000000000000000    000000000000000000000000000000000000000000000000000000000000                                                                                                  *
30102601155000109189637490013395207329750550402202001PAULO CESAR RODRIGUES                                                            893821100001040220203112199007157000000000235568000000000000000    000000000000000000000000000000000000000000000000000000000000                                                                                                  *
30102601155000109189637490013395207648048250402202001FAVIANI AZEVEDO DA SILVA                                                         368600900002040220202802199204110000000000168138000000000000000    000000000000000000000000000000000000000000000000000000000000                                                                                                  *
30102601155000109189637490013395209309779841703202101LUCAS OLIVEIRA LIMA                                                              574474500040170320212108199707170000000000139471000000000000000    000000000000000000000000000000000000000000000000000000000000                                                                                                  *
30102601155000109189637490013395209934167260402202001PAULO RIBEIRO DOS SANTOS                                                         154985000050040220201106198807157000000000241072000000000000000    000000000000000000000000000000000000000000000000000000000000                                                                                                  *
30102601155000109189637490013395236003811600504202101VALMIR MIGUEL DE SOUZA                                                           006005700055050420211910197907157000000000172874000000000000000    000000000000000000000000000000000000000000000000000000000000                                                                                                  *
20102601155000109200600307843061000000000000000000000FABIO JOSE BRAGA NOCERA                 AV PC LUBA KLABIN 456                             CENTRO              84261750TELEMACO BORBA      PR    000000000000000000000000000000000000000000000000000000000000000000000000000000000000000000000000000000000000000000000000                                          *
21102601155000109200600307843061000000000000000000000000000000264168202104202104000000000000000000000000000000000000000000000000000000000000000000000000000                                                                                                                                                                                                            *
30102601155000109200600307843061125829905170402202001WILSON TEIXEIRA                                                                  008000100051040220200109197707157000000000235349000000000000000    000000000000000000000000000000000000000000000000000000000000                                                                                                  *
30102601155000109200600307843061126082595122801202001VALDENIR APARECIDO RAMOS                                                         764437600001280120202008197807157000000000241541000000000000000    000000000000000000000000000000000000000000000000000000000000                                                                                                  *
30102601155000109200600307843061126086265232801202001CLAUDEMIR DE JESUS RAMOS                                                         009855400053280120202208198007157000000000241541000000000000000    000000000000000000000000000000000000000000000000000000000000                                                                                                  *
30102601155000109200600307843061129381685021610202001MARCIO BATISTA LEAL                                                              436766600001161020200404198607157000000000215108000000000000000    000000000000000000000000000000000000000000000000000000000000                                                                                                  *
30102601155000109200600307843061164782430291610202001MATEUS DO ROSARIO OLIVEIRA                                                       893167200040161020201202199807157000000000221774000000000000000    000000000000000000000000000000000000000000000000000000000000                                                                                                  *
30102601155000109200600307843061170459899010703201701FLAVIO FRANCISCO DE CAMPOS                                                       008658000036070320171812197307157000000000165528000000000000000    000000000000000000000000000000000000000000000000000000000000                                                                                                  *
20102601155000109200900009339164000000000000000000000CLOVIS MARCONDES DE MATOS               RUA MAUA                                          PQ LIMEIRA AREA II  84267020TELEMACO BORBA      PR    000000000000000000000000000000000000000000000000000000000000000000000000000000000000000000000000000000000000000000000000                                          *
21102601155000109200900009339164000000000000000000000000000000368446202104202104000000000000000000000000000000000000000000000000000000000000000000000000000                                                                                                                                                                                                            *
30102601155000109200900009339164108951943732002202001ROSILDO DA SILVA                                                                 268744600003200220200307196307157000000000285884000000000000000    000000000000000000000000000000000000000000000000000000000000                                                                                                  *
30102601155000109200900009339164120533594651905202001PAULO FLORENCIO DE SOUZA                                                         001106700562190520201701196407157000000000236101000000000000000    000000000000000000000000000000000000000000000000000000000000                                                                                                  *
30102601155000109200900009339164122900458712310202001LUIZ CARNEIRO MOREIRA                                                            693860005972231020200407196807170000000000154909000000000000000    000000000000000000000000000000000000000000000000000000000000                                                                                                  *
30102601155000109200900009339164123370445070307202001CELIO DAS NEVES OLIVEIRA                                                         840045600001030720200508197407157000000000229188000000000000000    000000000000000000000000000000000000000000000000000000000000                                                                                                  *
30102601155000109200900009339164124513000881309201901PEDRO DE MELO BUENO                                                              302846100003130920193010196807102000000000345331000000000000000    000000000000000000000000000000000000000000000000000000000000                                                                                                  *
30102601155000109200900009339164127436335082507201901ERCILIO LOPES                                                                    946408400040250720191703197207157000000000243070000000000000000    000000000000000000000000000000000000000000000000000000000000                                                                                                  *
30102601155000109200900009339164160359922270108201201ANGELIO ROQUE PARIZZI JUNIOR                                                     100837400002010820121403199107102000000000347747000000000000000    000000000000000000000000000000000000000000000000000000000000                                                                                                  *
90999999999999999999999999999999999999999999999999999                                                                                                                                                                                                                                                                                                                  *
