00                                                   1119747487000107HELENA BLAKA PADILHA ME       PAULO HENRIQUE      AV PRESIDENTE GETULIO VARGAS                      CENTRO              84660000GENERAL CARNEIRO    PR004235521213EVOLUCAOCONTABIL@LIVE.COM                                   2021031151         1               164555626000147                  *
10128334061000104000000000000000000000000000000000000COMERCIO DE COMBUSTIVEIS KM 480 EIRELI  R TANCREDO NEVES 323                              SAO MIGUEL          84660000GENERAL CARNEIRO    PR004235521719N4731800N300151501152100     000000000000000000000000000000000000000000000000000000000000                000000000000000000000000000000000000000000000    *
12128334061000104000000000000000000000000000000000000000000000000000000000000000000 000000000000000000000000000000                                000000000000000            000000000000000000000000000000000000000000000000000000000000000000000000000000000000000000000000000000000000000000000000000000000000000000000000000000000000000000000000000000000000      *
30128334061000104               106491726361011201811IZAURA CORDEIRO PINTO                                                                                        02521000000000110000000000000000000    000000000000000000000000000000000000000000000000000000000000                                                                                                  *
30128334061000104               122037274482611201901ANTONIO CELSO DOS SANTOS                                                         001220900014261120190908196605174000000000164993000000000000000    000000000000000000000000000000000000000000000000000000000000                                                                                                  *
30128334061000104               122863297041405202001LUIZ ANTONIO DE LIMA                                                             001857500022140520200901197105211000000000166613000000000000000    000000000000000000000000000000000000000000000000000000000000                                                                                                  *
30128334061000104               122863297710408202001REGINALDO SARDA DE ARAUJO                                                        436149000002040820201709196905211000000000172910000000000000000    000000000000000000000000000000000000000000000000000000000000                                                                                                  *
30128334061000104               126874415210707202001GEFFERSON TELL WOGINSKI                                                          004427500054070720201810197704211000000000166613000000000000000  05000000000013345000000000000000000000000000000000000000000000                                                                                                  *
30128334061000104               128989865012606202001ALESSANDRO DE PAULA SANTOS DA SILVA                                              238994600056260620202601198305211000000000172910000000000000000    000000000000000000000000000000000000000000000000000000000000                                                                                                  *
30128334061000104               130053695002207202001FERNANDO JOSE DOS SANTOS                                                         764442100001220720200710198607825000000000269867000000000000000    000000000000000000000000000000000000000000000000000000000000                                                                                                  *
30128334061000104               132717271541402202001BRUNA PIRES                                                                      187668900060140220201608199905211000000000166613000000000000000    000000000000000000000000000000000000000000000000000000000000                                                                                                  *
30128334061000104               144051823760402202101HERNANDEZ ROBLOSKI APRIGIO                                                       869729000050040220210109200105211000000000166613000000000000000    000000000000000000000000000000000000000000000000000000000000                                                                                                  *
30128334061000104               152644393740402202101LUIZ RODOLFO DA SILVA                                                            757462000050040220211610200204211000000000166613000000000000000    000000000000000000000000000000000000000000000000000000000000                                                                                                  *
30128334061000104               165802626732209202001SUELEN NEUMILHA DOS SANTOS BATISTA DA SILVA                                      476942400040220920200907199505211000000000166613000000000000000    000000000000000000000000000000000000000000000000000000000000                                                                                                  *
30128334061000104               209934634222209202001NILCEIA MARIANO                                                                  765422400001220920202406198205211000000000166613000000000000000    000000000000000000000000000000000000000000000000000000000000                                                                                                  *
30128334061000104               236332402481401202101MARIA FERNANDA SEROISKA                                                          685310000060140120210802200204110000000000148720000000000000000    000000000000000000000000000000000000000000000000000000000000                                                                                                  *
30128334061000104               236377914862408202001ANDREIVY LUIRIS BUSCH VENSAO                                                     476942200040240820202006199605211000000000166613000000000000000    000000000000000000000000000000000000000000000000000000000000                                                                                                  *
90999999999999999999999999999999999999999999999999999                                                                                                                                                                                                                                                                                                                  *